{
  "_format": "hh-sol-artifact-1",
  "contractName": "MarketV1",
  "sourceName": "contracts/v1/MarketV1.sol",
  "abi": [
    {
      "anonymous": false,
      "inputs": [
        {
          "indexed": false,
          "internalType": "address",
          "name": "previousAdmin",
          "type": "address"
        },
        {
          "indexed": false,
          "internalType": "address",
          "name": "newAdmin",
          "type": "address"
        }
      ],
      "name": "AdminChanged",
      "type": "event"
    },
    {
      "anonymous": false,
      "inputs": [
        {
          "indexed": true,
          "internalType": "address",
          "name": "owner",
          "type": "address"
        },
        {
          "indexed": true,
          "internalType": "address",
          "name": "approved",
          "type": "address"
        },
        {
          "indexed": true,
          "internalType": "uint256",
          "name": "tokenId",
          "type": "uint256"
        }
      ],
      "name": "Approval",
      "type": "event"
    },
    {
      "anonymous": false,
      "inputs": [
        {
          "indexed": true,
          "internalType": "address",
          "name": "owner",
          "type": "address"
        },
        {
          "indexed": true,
          "internalType": "address",
          "name": "operator",
          "type": "address"
        },
        {
          "indexed": false,
          "internalType": "bool",
          "name": "approved",
          "type": "bool"
        }
      ],
      "name": "ApprovalForAll",
      "type": "event"
    },
    {
      "anonymous": false,
      "inputs": [
        {
          "indexed": true,
          "internalType": "address",
          "name": "beacon",
          "type": "address"
        }
      ],
      "name": "BeaconUpgraded",
      "type": "event"
    },
    {
      "anonymous": false,
      "inputs": [
        {
          "indexed": false,
          "internalType": "uint8",
          "name": "version",
          "type": "uint8"
        }
      ],
      "name": "Initialized",
      "type": "event"
    },
    {
      "anonymous": false,
      "inputs": [
        {
          "indexed": true,
          "internalType": "uint256",
          "name": "tokenId",
          "type": "uint256"
        },
        {
          "indexed": false,
          "internalType": "address",
          "name": "seller",
          "type": "address"
        },
        {
          "indexed": false,
          "internalType": "address",
          "name": "owner",
          "type": "address"
        },
        {
          "indexed": false,
          "internalType": "uint256",
          "name": "price",
          "type": "uint256"
        },
        {
          "indexed": false,
          "internalType": "bool",
          "name": "sold",
          "type": "bool"
        }
      ],
      "name": "MarketItemCreated",
      "type": "event"
    },
    {
      "anonymous": false,
      "inputs": [
        {
          "indexed": true,
          "internalType": "address",
          "name": "previousOwner",
          "type": "address"
        },
        {
          "indexed": true,
          "internalType": "address",
          "name": "newOwner",
          "type": "address"
        }
      ],
      "name": "OwnershipTransferred",
      "type": "event"
    },
    {
      "anonymous": false,
      "inputs": [
        {
          "indexed": true,
          "internalType": "address",
          "name": "from",
          "type": "address"
        },
        {
          "indexed": true,
          "internalType": "address",
          "name": "to",
          "type": "address"
        },
        {
          "indexed": true,
          "internalType": "uint256",
          "name": "tokenId",
          "type": "uint256"
        }
      ],
      "name": "Transfer",
      "type": "event"
    },
    {
      "anonymous": false,
      "inputs": [
        {
          "indexed": true,
          "internalType": "address",
          "name": "implementation",
          "type": "address"
        }
      ],
      "name": "Upgraded",
      "type": "event"
    },
    {
      "inputs": [
        {
          "internalType": "address",
          "name": "to",
          "type": "address"
        },
        {
          "internalType": "uint256",
          "name": "tokenId",
          "type": "uint256"
        }
      ],
      "name": "approve",
      "outputs": [],
      "stateMutability": "nonpayable",
      "type": "function"
    },
    {
      "inputs": [
        {
          "internalType": "address",
          "name": "owner",
          "type": "address"
        }
      ],
      "name": "balanceOf",
      "outputs": [
        {
          "internalType": "uint256",
          "name": "",
          "type": "uint256"
        }
      ],
      "stateMutability": "view",
      "type": "function"
    },
    {
      "inputs": [
        {
          "internalType": "uint256",
          "name": "tokenId",
          "type": "uint256"
        }
      ],
      "name": "createMarketSale",
      "outputs": [],
      "stateMutability": "payable",
      "type": "function"
    },
    {
      "inputs": [
        {
          "internalType": "string",
          "name": "tokenURI",
          "type": "string"
        },
        {
          "internalType": "uint256",
          "name": "price",
          "type": "uint256"
        }
      ],
      "name": "createToken",
      "outputs": [
        {
          "internalType": "uint256",
          "name": "",
          "type": "uint256"
        }
      ],
      "stateMutability": "payable",
      "type": "function"
    },
    {
      "inputs": [],
      "name": "fetchItemsListed",
      "outputs": [
        {
          "components": [
            {
              "internalType": "uint256",
              "name": "tokenId",
              "type": "uint256"
            },
            {
              "internalType": "address payable",
              "name": "seller",
              "type": "address"
            },
            {
              "internalType": "address payable",
              "name": "owner",
              "type": "address"
            },
            {
              "internalType": "uint256",
              "name": "price",
              "type": "uint256"
            },
            {
              "internalType": "bool",
              "name": "sold",
              "type": "bool"
            }
          ],
          "internalType": "struct MarketV1.MarketItem[]",
          "name": "",
          "type": "tuple[]"
        }
      ],
      "stateMutability": "view",
      "type": "function"
    },
    {
      "inputs": [],
      "name": "fetchMarketItems",
      "outputs": [
        {
          "components": [
            {
              "internalType": "uint256",
              "name": "tokenId",
              "type": "uint256"
            },
            {
              "internalType": "address payable",
              "name": "seller",
              "type": "address"
            },
            {
              "internalType": "address payable",
              "name": "owner",
              "type": "address"
            },
            {
              "internalType": "uint256",
              "name": "price",
              "type": "uint256"
            },
            {
              "internalType": "bool",
              "name": "sold",
              "type": "bool"
            }
          ],
          "internalType": "struct MarketV1.MarketItem[]",
          "name": "",
          "type": "tuple[]"
        }
      ],
      "stateMutability": "view",
      "type": "function"
    },
    {
      "inputs": [],
      "name": "fetchMyNFTs",
      "outputs": [
        {
          "components": [
            {
              "internalType": "uint256",
              "name": "tokenId",
              "type": "uint256"
            },
            {
              "internalType": "address payable",
              "name": "seller",
              "type": "address"
            },
            {
              "internalType": "address payable",
              "name": "owner",
              "type": "address"
            },
            {
              "internalType": "uint256",
              "name": "price",
              "type": "uint256"
            },
            {
              "internalType": "bool",
              "name": "sold",
              "type": "bool"
            }
          ],
          "internalType": "struct MarketV1.MarketItem[]",
          "name": "",
          "type": "tuple[]"
        }
      ],
      "stateMutability": "view",
      "type": "function"
    },
    {
      "inputs": [
        {
          "internalType": "uint256",
          "name": "tokenId",
          "type": "uint256"
        }
      ],
      "name": "getApproved",
      "outputs": [
        {
          "internalType": "address",
          "name": "",
          "type": "address"
        }
      ],
      "stateMutability": "view",
      "type": "function"
    },
    {
      "inputs": [],
      "name": "initialize",
      "outputs": [],
      "stateMutability": "nonpayable",
      "type": "function"
    },
    {
      "inputs": [
        {
          "internalType": "address",
          "name": "owner",
          "type": "address"
        },
        {
          "internalType": "address",
          "name": "operator",
          "type": "address"
        }
      ],
      "name": "isApprovedForAll",
      "outputs": [
        {
          "internalType": "bool",
          "name": "",
          "type": "bool"
        }
      ],
      "stateMutability": "view",
      "type": "function"
    },
    {
      "inputs": [],
      "name": "name",
      "outputs": [
        {
          "internalType": "string",
          "name": "",
          "type": "string"
        }
      ],
      "stateMutability": "view",
      "type": "function"
    },
    {
      "inputs": [],
      "name": "owner",
      "outputs": [
        {
          "internalType": "address",
          "name": "",
          "type": "address"
        }
      ],
      "stateMutability": "view",
      "type": "function"
    },
    {
      "inputs": [
        {
          "internalType": "uint256",
          "name": "tokenId",
          "type": "uint256"
        }
      ],
      "name": "ownerOf",
      "outputs": [
        {
          "internalType": "address",
          "name": "",
          "type": "address"
        }
      ],
      "stateMutability": "view",
      "type": "function"
    },
    {
      "inputs": [],
      "name": "proxiableUUID",
      "outputs": [
        {
          "internalType": "bytes32",
          "name": "",
          "type": "bytes32"
        }
      ],
      "stateMutability": "view",
      "type": "function"
    },
    {
      "inputs": [],
      "name": "renounceOwnership",
      "outputs": [],
      "stateMutability": "nonpayable",
      "type": "function"
    },
    {
      "inputs": [
        {
          "internalType": "uint256",
          "name": "tokenId",
          "type": "uint256"
        },
        {
          "internalType": "uint256",
          "name": "price",
          "type": "uint256"
        }
      ],
      "name": "resellToken",
      "outputs": [],
      "stateMutability": "payable",
      "type": "function"
    },
    {
      "inputs": [
        {
          "internalType": "address",
          "name": "from",
          "type": "address"
        },
        {
          "internalType": "address",
          "name": "to",
          "type": "address"
        },
        {
          "internalType": "uint256",
          "name": "tokenId",
          "type": "uint256"
        }
      ],
      "name": "safeTransferFrom",
      "outputs": [],
      "stateMutability": "nonpayable",
      "type": "function"
    },
    {
      "inputs": [
        {
          "internalType": "address",
          "name": "from",
          "type": "address"
        },
        {
          "internalType": "address",
          "name": "to",
          "type": "address"
        },
        {
          "internalType": "uint256",
          "name": "tokenId",
          "type": "uint256"
        },
        {
          "internalType": "bytes",
          "name": "_data",
          "type": "bytes"
        }
      ],
      "name": "safeTransferFrom",
      "outputs": [],
      "stateMutability": "nonpayable",
      "type": "function"
    },
    {
      "inputs": [
        {
          "internalType": "address",
          "name": "operator",
          "type": "address"
        },
        {
          "internalType": "bool",
          "name": "approved",
          "type": "bool"
        }
      ],
      "name": "setApprovalForAll",
      "outputs": [],
      "stateMutability": "nonpayable",
      "type": "function"
    },
    {
      "inputs": [
        {
          "internalType": "bytes4",
          "name": "interfaceId",
          "type": "bytes4"
        }
      ],
      "name": "supportsInterface",
      "outputs": [
        {
          "internalType": "bool",
          "name": "",
          "type": "bool"
        }
      ],
      "stateMutability": "view",
      "type": "function"
    },
    {
      "inputs": [],
      "name": "symbol",
      "outputs": [
        {
          "internalType": "string",
          "name": "",
          "type": "string"
        }
      ],
      "stateMutability": "view",
      "type": "function"
    },
    {
      "inputs": [
        {
          "internalType": "uint256",
          "name": "tokenId",
          "type": "uint256"
        }
      ],
      "name": "tokenURI",
      "outputs": [
        {
          "internalType": "string",
          "name": "",
          "type": "string"
        }
      ],
      "stateMutability": "view",
      "type": "function"
    },
    {
      "inputs": [
        {
          "internalType": "address",
          "name": "from",
          "type": "address"
        },
        {
          "internalType": "address",
          "name": "to",
          "type": "address"
        },
        {
          "internalType": "uint256",
          "name": "tokenId",
          "type": "uint256"
        }
      ],
      "name": "transferFrom",
      "outputs": [],
      "stateMutability": "nonpayable",
      "type": "function"
    },
    {
      "inputs": [
        {
          "internalType": "address",
          "name": "newOwner",
          "type": "address"
        }
      ],
      "name": "transferOwnership",
      "outputs": [],
      "stateMutability": "nonpayable",
      "type": "function"
    },
    {
      "inputs": [
        {
          "internalType": "address",
          "name": "newImplementation",
          "type": "address"
        }
      ],
      "name": "upgradeTo",
      "outputs": [],
      "stateMutability": "nonpayable",
      "type": "function"
    },
    {
      "inputs": [
        {
          "internalType": "address",
          "name": "newImplementation",
          "type": "address"
        },
        {
          "internalType": "bytes",
          "name": "data",
          "type": "bytes"
        }
      ],
      "name": "upgradeToAndCall",
      "outputs": [],
      "stateMutability": "payable",
      "type": "function"
    }
  ],
  "bytecode": "0x60a06040523060805234801561001457600080fd5b5060805161300f61004c60003960008181610af201528181610b3201528181610dc701528181610e070152610e9a015261300f6000f3fe6080604052600436106101815760003560e01c806370a08231116100d1578063a22cb4651161008a578063c87b56dd11610064578063c87b56dd1461041c578063e219fc751461043c578063e985e9c51461044f578063f2fde38b1461049857600080fd5b8063a22cb465146103c9578063b88d4fde146103e9578063be9af5361461040957600080fd5b806370a0823114610339578063715018a61461035957806372b3b6201461036e5780638129fc1c146103815780638da5cb5b1461039657806395d89b41146103b457600080fd5b806323b872dd1161013e57806345f8fa801161011857806345f8fa80146102ce5780634f1ef286146102e357806352d1902d146102f65780636352211e1461031957600080fd5b806323b872dd1461026e5780633659cfe61461028e57806342842e0e146102ae57600080fd5b806301ffc9a71461018657806306fdde03146101bb578063081812fc146101dd578063095ea7b3146102155780630f08efe014610237578063202e374014610259575b600080fd5b34801561019257600080fd5b506101a66101a13660046127a4565b6104b8565b60405190151581526020015b60405180910390f35b3480156101c757600080fd5b506101d061050a565b6040516101b29190612819565b3480156101e957600080fd5b506101fd6101f836600461282c565b61059c565b6040516001600160a01b0390911681526020016101b2565b34801561022157600080fd5b5061023561023036600461285c565b610629565b005b34801561024357600080fd5b5061024c61073f565b6040516101b29190612886565b34801561026557600080fd5b5061024c6108dc565b34801561027a57600080fd5b50610235610289366004612902565b610ab6565b34801561029a57600080fd5b506102356102a936600461293e565b610ae7565b3480156102ba57600080fd5b506102356102c9366004612902565b610bc7565b3480156102da57600080fd5b5061024c610be2565b6102356102f1366004612a05565b610dbc565b34801561030257600080fd5b5061030b610e8d565b6040519081526020016101b2565b34801561032557600080fd5b506101fd61033436600461282c565b610f40565b34801561034557600080fd5b5061030b61035436600461293e565b610fb7565b34801561036557600080fd5b5061023561103e565b61030b61037c366004612a53565b611074565b34801561038d57600080fd5b506102356110e5565b3480156103a257600080fd5b5060c9546001600160a01b03166101fd565b3480156103c057600080fd5b506101d06111be565b3480156103d557600080fd5b506102356103e4366004612aac565b6111cd565b3480156103f557600080fd5b50610235610404366004612ae8565b6111d8565b61023561041736600461282c565b611210565b34801561042857600080fd5b506101d061043736600461282c565b611369565b61023561044a366004612b50565b6114e0565b34801561045b57600080fd5b506101a661046a366004612b72565b6001600160a01b039182166000908152606a6020908152604080832093909416825291909152205460ff1690565b3480156104a457600080fd5b506102356104b336600461293e565b6115ec565b60006001600160e01b031982166380ac58cd60e01b14806104e957506001600160e01b03198216635b5e139f60e01b145b8061050457506301ffc9a760e01b6001600160e01b03198316145b92915050565b60606065805461051990612ba5565b80601f016020809104026020016040519081016040528092919081815260200182805461054590612ba5565b80156105925780601f1061056757610100808354040283529160200191610592565b820191906000526020600020905b81548152906001019060200180831161057557829003601f168201915b5050505050905090565b60006105a782611684565b61060d5760405162461bcd60e51b815260206004820152602c60248201527f4552433732313a20617070726f76656420717565727920666f72206e6f6e657860448201526b34b9ba32b73a103a37b5b2b760a11b60648201526084015b60405180910390fd5b506000908152606960205260409020546001600160a01b031690565b600061063482610f40565b9050806001600160a01b0316836001600160a01b031614156106a25760405162461bcd60e51b815260206004820152602160248201527f4552433732313a20617070726f76616c20746f2063757272656e74206f776e656044820152603960f91b6064820152608401610604565b336001600160a01b03821614806106be57506106be813361046a565b6107305760405162461bcd60e51b815260206004820152603860248201527f4552433732313a20617070726f76652063616c6c6572206973206e6f74206f7760448201527f6e6572206e6f7220617070726f76656420666f7220616c6c00000000000000006064820152608401610604565b61073a83836116a1565b505050565b6060600061074d6101915490565b9050600061075b6101925490565b610191546107699190612bf6565b90506000808267ffffffffffffffff81111561078757610787612959565b6040519080825280602002602001820160405280156107e057816020015b6040805160a0810182526000808252602080830182905292820181905260608201819052608082015282526000199092019101816107a55790505b50905060005b848110156108d3573061019360006107ff846001612c0d565b81526020810191909152604001600020600201546001600160a01b031614156108c157600061082f826001612c0d565b60008181526101936020908152604091829020825160a0810184528154815260018201546001600160a01b039081169382019390935260028201549092169282019290925260038201546060820152600482015460ff1615156080820152855192935090918590879081106108a6576108a6612c25565b60209081029190910101526108bc600186612c0d565b945050505b806108cb81612c3b565b9150506107e6565b50949350505050565b606060006108ea6101915490565b905060008060005b8381101561094e5733610193600061090b846001612c0d565b81526020810191909152604001600020600201546001600160a01b0316141561093c57610939600184612c0d565b92505b8061094681612c3b565b9150506108f2565b5060008267ffffffffffffffff81111561096a5761096a612959565b6040519080825280602002602001820160405280156109c357816020015b6040805160a0810182526000808252602080830182905292820181905260608201819052608082015282526000199092019101816109885790505b50905060005b848110156108d3573361019360006109e2846001612c0d565b81526020810191909152604001600020600201546001600160a01b03161415610aa4576000610a12826001612c0d565b60008181526101936020908152604091829020825160a0810184528154815260018201546001600160a01b039081169382019390935260028201549092169282019290925260038201546060820152600482015460ff161515608082015285519293509091859087908110610a8957610a89612c25565b6020908102919091010152610a9f600186612c0d565b945050505b80610aae81612c3b565b9150506109c9565b610ac0338261170f565b610adc5760405162461bcd60e51b815260040161060490612c56565b61073a8383836117f8565b306001600160a01b037f0000000000000000000000000000000000000000000000000000000000000000161415610b305760405162461bcd60e51b815260040161060490612ca7565b7f00000000000000000000000000000000000000000000000000000000000000006001600160a01b0316610b79600080516020612f93833981519152546001600160a01b031690565b6001600160a01b031614610b9f5760405162461bcd60e51b815260040161060490612cf3565b610ba881611994565b60408051600080825260208201909252610bc4918391906119be565b50565b61073a838383604051806020016040528060008152506111d8565b60606000610bf06101915490565b905060008060005b83811015610c5457336101936000610c11846001612c0d565b81526020810191909152604001600020600101546001600160a01b03161415610c4257610c3f600184612c0d565b92505b80610c4c81612c3b565b915050610bf8565b5060008267ffffffffffffffff811115610c7057610c70612959565b604051908082528060200260200182016040528015610cc957816020015b6040805160a081018252600080825260208083018290529282018190526060820181905260808201528252600019909201910181610c8e5790505b50905060005b848110156108d357336101936000610ce8846001612c0d565b81526020810191909152604001600020600101546001600160a01b03161415610daa576000610d18826001612c0d565b60008181526101936020908152604091829020825160a0810184528154815260018201546001600160a01b039081169382019390935260028201549092169282019290925260038201546060820152600482015460ff161515608082015285519293509091859087908110610d8f57610d8f612c25565b6020908102919091010152610da5600186612c0d565b945050505b80610db481612c3b565b915050610ccf565b306001600160a01b037f0000000000000000000000000000000000000000000000000000000000000000161415610e055760405162461bcd60e51b815260040161060490612ca7565b7f00000000000000000000000000000000000000000000000000000000000000006001600160a01b0316610e4e600080516020612f93833981519152546001600160a01b031690565b6001600160a01b031614610e745760405162461bcd60e51b815260040161060490612cf3565b610e7d82611994565b610e89828260016119be565b5050565b6000306001600160a01b037f00000000000000000000000000000000000000000000000000000000000000001614610f2d5760405162461bcd60e51b815260206004820152603860248201527f555550535570677261646561626c653a206d757374206e6f742062652063616c60448201527f6c6564207468726f7567682064656c656761746563616c6c00000000000000006064820152608401610604565b50600080516020612f9383398151915290565b6000818152606760205260408120546001600160a01b0316806105045760405162461bcd60e51b815260206004820152602960248201527f4552433732313a206f776e657220717565727920666f72206e6f6e657869737460448201526832b73a103a37b5b2b760b91b6064820152608401610604565b60006001600160a01b0382166110225760405162461bcd60e51b815260206004820152602a60248201527f4552433732313a2062616c616e636520717565727920666f7220746865207a65604482015269726f206164647265737360b01b6064820152608401610604565b506001600160a01b031660009081526068602052604090205490565b60c9546001600160a01b031633146110685760405162461bcd60e51b815260040161060490612d3f565b6110726000611b38565b565b6000600260fb5414156110995760405162461bcd60e51b815260040161060490612d74565b600260fb556110ad61019180546001019055565b60006110b96101915490565b90506110c53382611b8a565b6110cf8185611cbd565b6110d98184611d48565b600160fb559392505050565b60006110f16001611e9c565b90508015611109576000805461ff0019166101001790555b61115e6040518060400160405280601581526020017450726976617465204e4654204d61726b657420563160581b81525060405180604001604052806006815260200165504e4d2d563160d01b815250611f29565b611166611f5a565b61116e611f89565b611176611fb8565b8015610bc4576000805461ff0019169055604051600181527f7f26b83ff96e1f2b6a682f133852f6798a09c465da95921460cefb38474024989060200160405180910390a150565b60606066805461051990612ba5565b610e89338383611fdf565b6111e2338361170f565b6111fe5760405162461bcd60e51b815260040161060490612c56565b61120a848484846120ae565b50505050565b600260fb5414156112335760405162461bcd60e51b815260040161060490612d74565b600260fb5560008181526101936020526040902060038101546001909101546001600160a01b03163482146112d2576040805162461bcd60e51b81526020600482015260248101919091527f506c65617365207375626d6974207468652061736b696e67207072696365206960448201527f6e206f7264657220746f20636f6d706c657465207468652070757263686173656064820152608401610604565b6000838152610193602052604090206002810180546001600160a01b0319908116331790915560048201805460ff1916600190811790915591820180549091169055610192805490910190556113293033856117f8565b6040516001600160a01b038216903480156108fc02916000818181858888f1935050505015801561135e573d6000803e3d6000fd5b5050600160fb555050565b606061137482611684565b6113da5760405162461bcd60e51b815260206004820152603160248201527f45524337323155524953746f726167653a2055524920717565727920666f72206044820152703737b732bc34b9ba32b73a103a37b5b2b760791b6064820152608401610604565b600082815260976020526040812080546113f390612ba5565b80601f016020809104026020016040519081016040528092919081815260200182805461141f90612ba5565b801561146c5780601f106114415761010080835404028352916020019161146c565b820191906000526020600020905b81548152906001019060200180831161144f57829003601f168201915b50505050509050600061148a60408051602081019091526000815290565b905080516000141561149d575092915050565b8151156114cf5780826040516020016114b7929190612dab565b60405160208183030381529060405292505050919050565b6114d8846120e1565b949350505050565b600260fb5414156115035760405162461bcd60e51b815260040161060490612d74565b600260fb81905560008381526101936020526040902001546001600160a01b031633146115855760405162461bcd60e51b815260206004820152602a60248201527f4f6e6c79206974656d206f776e65722063616e20706572666f726d20746869736044820152691037b832b930ba34b7b760b11b6064820152608401610604565b60008281526101936020526040902060048101805460ff1916905560038101829055600181018054336001600160a01b03199182161790915560029091018054909116301790556115d76101926121b9565b6115e3335b30846117f8565b5050600160fb55565b60c9546001600160a01b031633146116165760405162461bcd60e51b815260040161060490612d3f565b6001600160a01b03811661167b5760405162461bcd60e51b815260206004820152602660248201527f4f776e61626c653a206e6577206f776e657220697320746865207a65726f206160448201526564647265737360d01b6064820152608401610604565b610bc481611b38565b6000908152606760205260409020546001600160a01b0316151590565b600081815260696020526040902080546001600160a01b0319166001600160a01b03841690811790915581906116d682610f40565b6001600160a01b03167f8c5be1e5ebec7d5bd14f71427d1e84f3dd0314c0f7b2291e5b200ac8c7c3b92560405160405180910390a45050565b600061171a82611684565b61177b5760405162461bcd60e51b815260206004820152602c60248201527f4552433732313a206f70657261746f7220717565727920666f72206e6f6e657860448201526b34b9ba32b73a103a37b5b2b760a11b6064820152608401610604565b600061178683610f40565b9050806001600160a01b0316846001600160a01b031614806117cd57506001600160a01b038082166000908152606a602090815260408083209388168352929052205460ff165b806114d85750836001600160a01b03166117e68461059c565b6001600160a01b031614949350505050565b826001600160a01b031661180b82610f40565b6001600160a01b03161461186f5760405162461bcd60e51b815260206004820152602560248201527f4552433732313a207472616e736665722066726f6d20696e636f72726563742060448201526437bbb732b960d91b6064820152608401610604565b6001600160a01b0382166118d15760405162461bcd60e51b8152602060048201526024808201527f4552433732313a207472616e7366657220746f20746865207a65726f206164646044820152637265737360e01b6064820152608401610604565b6118dc6000826116a1565b6001600160a01b0383166000908152606860205260408120805460019290611905908490612bf6565b90915550506001600160a01b0382166000908152606860205260408120805460019290611933908490612c0d565b909155505060008181526067602052604080822080546001600160a01b0319166001600160a01b0386811691821790925591518493918716917fddf252ad1be2c89b69c2b068fc378daa952ba7f163c4a11628f55a4df523b3ef91a4505050565b60c9546001600160a01b03163314610bc45760405162461bcd60e51b815260040161060490612d3f565b7f4910fdfa16fed3260ed0e7147f7cc6da11a60208b5b9406d12a635614ffd91435460ff16156119f15761073a83612210565b826001600160a01b03166352d1902d6040518163ffffffff1660e01b815260040160206040518083038186803b158015611a2a57600080fd5b505afa925050508015611a5a575060408051601f3d908101601f19168201909252611a5791810190612dda565b60015b611abd5760405162461bcd60e51b815260206004820152602e60248201527f45524331393637557067726164653a206e657720696d706c656d656e7461746960448201526d6f6e206973206e6f74205555505360901b6064820152608401610604565b600080516020612f938339815191528114611b2c5760405162461bcd60e51b815260206004820152602960248201527f45524331393637557067726164653a20756e737570706f727465642070726f786044820152681a58589b195555525160ba1b6064820152608401610604565b5061073a8383836122ac565b60c980546001600160a01b038381166001600160a01b0319831681179093556040519116919082907f8be0079c531659141344cd1fd0a4f28419497f9722a3daafe3b4186f6b6457e090600090a35050565b6001600160a01b038216611be05760405162461bcd60e51b815260206004820181905260248201527f4552433732313a206d696e7420746f20746865207a65726f20616464726573736044820152606401610604565b611be981611684565b15611c365760405162461bcd60e51b815260206004820152601c60248201527f4552433732313a20746f6b656e20616c7265616479206d696e746564000000006044820152606401610604565b6001600160a01b0382166000908152606860205260408120805460019290611c5f908490612c0d565b909155505060008181526067602052604080822080546001600160a01b0319166001600160a01b03861690811790915590518392907fddf252ad1be2c89b69c2b068fc378daa952ba7f163c4a11628f55a4df523b3ef908290a45050565b611cc682611684565b611d295760405162461bcd60e51b815260206004820152602e60248201527f45524337323155524953746f726167653a2055524920736574206f66206e6f6e60448201526d32bc34b9ba32b73a103a37b5b2b760911b6064820152608401610604565b6000828152609760209081526040909120825161073a928401906126f5565b60008111611d985760405162461bcd60e51b815260206004820152601c60248201527f5072696365206d757374206265206174206c65617374203120776569000000006044820152606401610604565b6040518060a00160405280838152602001611db03390565b6001600160a01b03908116825230602080840191909152604080840186905260006060948501819052878152610193835281902085518155918501516001830180549185166001600160a01b031992831617905590850151600283018054919094169116179091559082015160038201556080909101516004909101805491151560ff19909216919091179055611e476115dc3390565b817fb640004f1d14576d0c209e240cad0410e0d8c0c33a09375861fbadae2588a98d33604080516001600160a01b03909216825230602083015281018490526000606082015260800160405180910390a25050565b60008054610100900460ff1615611ee3578160ff166001148015611ebf5750303b155b611edb5760405162461bcd60e51b815260040161060490612df3565b506000919050565b60005460ff808416911610611f0a5760405162461bcd60e51b815260040161060490612df3565b506000805460ff191660ff92909216919091179055600190565b919050565b600054610100900460ff16611f505760405162461bcd60e51b815260040161060490612e41565b610e8982826122d1565b600054610100900460ff16611f815760405162461bcd60e51b815260040161060490612e41565b61107261231f565b600054610100900460ff16611fb05760405162461bcd60e51b815260040161060490612e41565b61107261234f565b600054610100900460ff166110725760405162461bcd60e51b815260040161060490612e41565b816001600160a01b0316836001600160a01b031614156120415760405162461bcd60e51b815260206004820152601960248201527f4552433732313a20617070726f766520746f2063616c6c6572000000000000006044820152606401610604565b6001600160a01b038381166000818152606a6020908152604080832094871680845294825291829020805460ff191686151590811790915591519182527f17307eab39ab6107e8899845ad3d59bd9653f200f220920489ca2b5937696c31910160405180910390a3505050565b6120b98484846117f8565b6120c58484848461237d565b61120a5760405162461bcd60e51b815260040161060490612e8c565b60606120ec82611684565b6121505760405162461bcd60e51b815260206004820152602f60248201527f4552433732314d657461646174613a2055524920717565727920666f72206e6f60448201526e3732bc34b9ba32b73a103a37b5b2b760891b6064820152608401610604565b600061216760408051602081019091526000815290565b9050600081511161218757604051806020016040528060008152506121b2565b806121918461248a565b6040516020016121a2929190612dab565b6040516020818303038152906040525b9392505050565b8054806122085760405162461bcd60e51b815260206004820152601b60248201527f436f756e7465723a2064656372656d656e74206f766572666c6f7700000000006044820152606401610604565b600019019055565b6001600160a01b0381163b61227d5760405162461bcd60e51b815260206004820152602d60248201527f455243313936373a206e657720696d706c656d656e746174696f6e206973206e60448201526c1bdd08184818dbdb9d1c9858dd609a1b6064820152608401610604565b600080516020612f9383398151915280546001600160a01b0319166001600160a01b0392909216919091179055565b6122b583612588565b6000825111806122c25750805b1561073a5761120a83836125c8565b600054610100900460ff166122f85760405162461bcd60e51b815260040161060490612e41565b815161230b9060659060208501906126f5565b50805161073a9060669060208401906126f5565b600054610100900460ff166123465760405162461bcd60e51b815260040161060490612e41565b61107233611b38565b600054610100900460ff166123765760405162461bcd60e51b815260040161060490612e41565b600160fb55565b60006001600160a01b0384163b1561247f57604051630a85bd0160e11b81526001600160a01b0385169063150b7a02906123c1903390899088908890600401612ede565b602060405180830381600087803b1580156123db57600080fd5b505af192505050801561240b575060408051601f3d908101601f1916820190925261240891810190612f1b565b60015b612465573d808015612439576040519150601f19603f3d011682016040523d82523d6000602084013e61243e565b606091505b50805161245d5760405162461bcd60e51b815260040161060490612e8c565b805181602001fd5b6001600160e01b031916630a85bd0160e11b1490506114d8565b506001949350505050565b6060816124ae5750506040805180820190915260018152600360fc1b602082015290565b8160005b81156124d857806124c281612c3b565b91506124d19050600a83612f4e565b91506124b2565b60008167ffffffffffffffff8111156124f3576124f3612959565b6040519080825280601f01601f19166020018201604052801561251d576020820181803683370190505b5090505b84156114d857612532600183612bf6565b915061253f600a86612f62565b61254a906030612c0d565b60f81b81838151811061255f5761255f612c25565b60200101906001600160f81b031916908160001a905350612581600a86612f4e565b9450612521565b61259181612210565b6040516001600160a01b038216907fbc7cd75a20ee27fd9adebab32041f755214dbc6bffa90cc0225b39da2e5c2d3b90600090a250565b60606001600160a01b0383163b6126305760405162461bcd60e51b815260206004820152602660248201527f416464726573733a2064656c65676174652063616c6c20746f206e6f6e2d636f6044820152651b9d1c9858dd60d21b6064820152608401610604565b600080846001600160a01b03168460405161264b9190612f76565b600060405180830381855af49150503d8060008114612686576040519150601f19603f3d011682016040523d82523d6000602084013e61268b565b606091505b50915091506126b38282604051806060016040528060278152602001612fb3602791396126bc565b95945050505050565b606083156126cb5750816121b2565b8251156126db5782518084602001fd5b8160405162461bcd60e51b81526004016106049190612819565b82805461270190612ba5565b90600052602060002090601f0160209004810192826127235760008555612769565b82601f1061273c57805160ff1916838001178555612769565b82800160010185558215612769579182015b8281111561276957825182559160200191906001019061274e565b50612775929150612779565b5090565b5b80821115612775576000815560010161277a565b6001600160e01b031981168114610bc457600080fd5b6000602082840312156127b657600080fd5b81356121b28161278e565b60005b838110156127dc5781810151838201526020016127c4565b8381111561120a5750506000910152565b600081518084526128058160208601602086016127c1565b601f01601f19169290920160200192915050565b6020815260006121b260208301846127ed565b60006020828403121561283e57600080fd5b5035919050565b80356001600160a01b0381168114611f2457600080fd5b6000806040838503121561286f57600080fd5b61287883612845565b946020939093013593505050565b602080825282518282018190526000919060409081850190868401855b828110156128f557815180518552868101516001600160a01b03908116888701528682015116868601526060808201519086015260809081015115159085015260a090930192908501906001016128a3565b5091979650505050505050565b60008060006060848603121561291757600080fd5b61292084612845565b925061292e60208501612845565b9150604084013590509250925092565b60006020828403121561295057600080fd5b6121b282612845565b634e487b7160e01b600052604160045260246000fd5b600067ffffffffffffffff8084111561298a5761298a612959565b604051601f8501601f19908116603f011681019082821181831017156129b2576129b2612959565b816040528093508581528686860111156129cb57600080fd5b858560208301376000602087830101525050509392505050565b600082601f8301126129f657600080fd5b6121b28383356020850161296f565b60008060408385031215612a1857600080fd5b612a2183612845565b9150602083013567ffffffffffffffff811115612a3d57600080fd5b612a49858286016129e5565b9150509250929050565b60008060408385031215612a6657600080fd5b823567ffffffffffffffff811115612a7d57600080fd5b8301601f81018513612a8e57600080fd5b612a9d8582356020840161296f565b95602094909401359450505050565b60008060408385031215612abf57600080fd5b612ac883612845565b915060208301358015158114612add57600080fd5b809150509250929050565b60008060008060808587031215612afe57600080fd5b612b0785612845565b9350612b1560208601612845565b925060408501359150606085013567ffffffffffffffff811115612b3857600080fd5b612b44878288016129e5565b91505092959194509250565b60008060408385031215612b6357600080fd5b50508035926020909101359150565b60008060408385031215612b8557600080fd5b612b8e83612845565b9150612b9c60208401612845565b90509250929050565b600181811c90821680612bb957607f821691505b60208210811415612bda57634e487b7160e01b600052602260045260246000fd5b50919050565b634e487b7160e01b600052601160045260246000fd5b600082821015612c0857612c08612be0565b500390565b60008219821115612c2057612c20612be0565b500190565b634e487b7160e01b600052603260045260246000fd5b6000600019821415612c4f57612c4f612be0565b5060010190565b60208082526031908201527f4552433732313a207472616e736665722063616c6c6572206973206e6f74206f6040820152701ddb995c881b9bdc88185c1c1c9bdd9959607a1b606082015260800190565b6020808252602c908201527f46756e6374696f6e206d7573742062652063616c6c6564207468726f7567682060408201526b19195b1959d85d1958d85b1b60a21b606082015260800190565b6020808252602c908201527f46756e6374696f6e206d7573742062652063616c6c6564207468726f7567682060408201526b6163746976652070726f787960a01b606082015260800190565b6020808252818101527f4f776e61626c653a2063616c6c6572206973206e6f7420746865206f776e6572604082015260600190565b6020808252601f908201527f5265656e7472616e637947756172643a207265656e7472616e742063616c6c00604082015260600190565b60008351612dbd8184602088016127c1565b835190830190612dd18183602088016127c1565b01949350505050565b600060208284031215612dec57600080fd5b5051919050565b6020808252602e908201527f496e697469616c697a61626c653a20636f6e747261637420697320616c72656160408201526d191e481a5b9a5d1a585b1a5e995960921b606082015260800190565b6020808252602b908201527f496e697469616c697a61626c653a20636f6e7472616374206973206e6f74206960408201526a6e697469616c697a696e6760a81b606082015260800190565b60208082526032908201527f4552433732313a207472616e7366657220746f206e6f6e20455243373231526560408201527131b2b4bb32b91034b6b83632b6b2b73a32b960711b606082015260800190565b6001600160a01b0385811682528416602082015260408101839052608060608201819052600090612f11908301846127ed565b9695505050505050565b600060208284031215612f2d57600080fd5b81516121b28161278e565b634e487b7160e01b600052601260045260246000fd5b600082612f5d57612f5d612f38565b500490565b600082612f7157612f71612f38565b500690565b60008251612f888184602087016127c1565b919091019291505056fe360894a13ba1a3210667c828492db98dca3e2076cc3735a920a3ca505d382bbc416464726573733a206c6f772d6c6576656c2064656c65676174652063616c6c206661696c6564a2646970667358221220de9ba6fb16d97e9c44e63fb526ced29a33acb46e0733753f00a262277aa3638564736f6c63430008090033",
  "linkReferences": {},
  "deployedLinkReferences": {}
}